{
  "_format": "hh-sol-artifact-1",
  "contractName": "RegenmonNFT",
  "sourceName": "contracts/RegenmonNFT.sol",
  "abi": [
    {
      "inputs": [],
      "stateMutability": "nonpayable",
      "type": "constructor"
    },
    {
      "inputs": [
        {
          "internalType": "address",
          "name": "sender",
          "type": "address"
        },
        {
          "internalType": "uint256",
          "name": "tokenId",
          "type": "uint256"
        },
        {
          "internalType": "address",
          "name": "owner",
          "type": "address"
        }
      ],
      "name": "ERC721IncorrectOwner",
      "type": "error"
    },
    {
      "inputs": [
        {
          "internalType": "address",
          "name": "operator",
          "type": "address"
        },
        {
          "internalType": "uint256",
          "name": "tokenId",
          "type": "uint256"
        }
      ],
      "name": "ERC721InsufficientApproval",
      "type": "error"
    },
    {
      "inputs": [
        {
          "internalType": "address",
          "name": "approver",
          "type": "address"
        }
      ],
      "name": "ERC721InvalidApprover",
      "type": "error"
    },
    {
      "inputs": [
        {
          "internalType": "address",
          "name": "operator",
          "type": "address"
        }
      ],
      "name": "ERC721InvalidOperator",
      "type": "error"
    },
    {
      "inputs": [
        {
          "internalType": "address",
          "name": "owner",
          "type": "address"
        }
      ],
      "name": "ERC721InvalidOwner",
      "type": "error"
    },
    {
      "inputs": [
        {
          "internalType": "address",
          "name": "receiver",
          "type": "address"
        }
      ],
      "name": "ERC721InvalidReceiver",
      "type": "error"
    },
    {
      "inputs": [
        {
          "internalType": "address",
          "name": "sender",
          "type": "address"
        }
      ],
      "name": "ERC721InvalidSender",
      "type": "error"
    },
    {
      "inputs": [
        {
          "internalType": "uint256",
          "name": "tokenId",
          "type": "uint256"
        }
      ],
      "name": "ERC721NonexistentToken",
      "type": "error"
    },
    {
      "inputs": [
        {
          "internalType": "address",
          "name": "owner",
          "type": "address"
        }
      ],
      "name": "OwnableInvalidOwner",
      "type": "error"
    },
    {
      "inputs": [
        {
          "internalType": "address",
          "name": "account",
          "type": "address"
        }
      ],
      "name": "OwnableUnauthorizedAccount",
      "type": "error"
    },
    {
      "anonymous": false,
      "inputs": [
        {
          "indexed": true,
          "internalType": "address",
          "name": "owner",
          "type": "address"
        },
        {
          "indexed": true,
          "internalType": "address",
          "name": "approved",
          "type": "address"
        },
        {
          "indexed": true,
          "internalType": "uint256",
          "name": "tokenId",
          "type": "uint256"
        }
      ],
      "name": "Approval",
      "type": "event"
    },
    {
      "anonymous": false,
      "inputs": [
        {
          "indexed": true,
          "internalType": "address",
          "name": "owner",
          "type": "address"
        },
        {
          "indexed": true,
          "internalType": "address",
          "name": "operator",
          "type": "address"
        },
        {
          "indexed": false,
          "internalType": "bool",
          "name": "approved",
          "type": "bool"
        }
      ],
      "name": "ApprovalForAll",
      "type": "event"
    },
    {
      "anonymous": false,
      "inputs": [
        {
          "indexed": false,
          "internalType": "uint256",
          "name": "_fromTokenId",
          "type": "uint256"
        },
        {
          "indexed": false,
          "internalType": "uint256",
          "name": "_toTokenId",
          "type": "uint256"
        }
      ],
      "name": "BatchMetadataUpdate",
      "type": "event"
    },
    {
      "anonymous": false,
      "inputs": [
        {
          "indexed": false,
          "internalType": "uint256",
          "name": "_tokenId",
          "type": "uint256"
        }
      ],
      "name": "MetadataUpdate",
      "type": "event"
    },
    {
      "anonymous": false,
      "inputs": [
        {
          "indexed": true,
          "internalType": "address",
          "name": "previousOwner",
          "type": "address"
        },
        {
          "indexed": true,
          "internalType": "address",
          "name": "newOwner",
          "type": "address"
        }
      ],
      "name": "OwnershipTransferred",
      "type": "event"
    },
    {
      "anonymous": false,
      "inputs": [
        {
          "indexed": true,
          "internalType": "address",
          "name": "from",
          "type": "address"
        },
        {
          "indexed": true,
          "internalType": "address",
          "name": "to",
          "type": "address"
        },
        {
          "indexed": true,
          "internalType": "uint256",
          "name": "tokenId",
          "type": "uint256"
        }
      ],
      "name": "Transfer",
      "type": "event"
    },
    {
      "inputs": [
        {
          "internalType": "address",
          "name": "to",
          "type": "address"
        },
        {
          "internalType": "uint256",
          "name": "tokenId",
          "type": "uint256"
        }
      ],
      "name": "approve",
      "outputs": [],
      "stateMutability": "nonpayable",
      "type": "function"
    },
    {
      "inputs": [
        {
          "internalType": "address",
          "name": "owner",
          "type": "address"
        }
      ],
      "name": "balanceOf",
      "outputs": [
        {
          "internalType": "uint256",
          "name": "",
          "type": "uint256"
        }
      ],
      "stateMutability": "view",
      "type": "function"
    },
    {
      "inputs": [
        {
          "internalType": "uint256",
          "name": "tokenId",
          "type": "uint256"
        }
      ],
      "name": "getApproved",
      "outputs": [
        {
          "internalType": "address",
          "name": "",
          "type": "address"
        }
      ],
      "stateMutability": "view",
      "type": "function"
    },
    {
      "inputs": [
        {
          "internalType": "address",
          "name": "owner",
          "type": "address"
        },
        {
          "internalType": "address",
          "name": "operator",
          "type": "address"
        }
      ],
      "name": "isApprovedForAll",
      "outputs": [
        {
          "internalType": "bool",
          "name": "",
          "type": "bool"
        }
      ],
      "stateMutability": "view",
      "type": "function"
    },
    {
      "inputs": [
        {
          "internalType": "address",
          "name": "to",
          "type": "address"
        },
        {
          "internalType": "string",
          "name": "regenmonId",
          "type": "string"
        },
        {
          "internalType": "string",
          "name": "tokenURI_",
          "type": "string"
        }
      ],
      "name": "mintCreature",
      "outputs": [
        {
          "internalType": "uint256",
          "name": "",
          "type": "uint256"
        }
      ],
      "stateMutability": "nonpayable",
      "type": "function"
    },
    {
      "inputs": [],
      "name": "name",
      "outputs": [
        {
          "internalType": "string",
          "name": "",
          "type": "string"
        }
      ],
      "stateMutability": "view",
      "type": "function"
    },
    {
      "inputs": [],
      "name": "owner",
      "outputs": [
        {
          "internalType": "address",
          "name": "",
          "type": "address"
        }
      ],
      "stateMutability": "view",
      "type": "function"
    },
    {
      "inputs": [
        {
          "internalType": "uint256",
          "name": "tokenId",
          "type": "uint256"
        }
      ],
      "name": "ownerOf",
      "outputs": [
        {
          "internalType": "address",
          "name": "",
          "type": "address"
        }
      ],
      "stateMutability": "view",
      "type": "function"
    },
    {
      "inputs": [
        {
          "internalType": "string",
          "name": "",
          "type": "string"
        }
      ],
      "name": "regenmonToToken",
      "outputs": [
        {
          "internalType": "uint256",
          "name": "",
          "type": "uint256"
        }
      ],
      "stateMutability": "view",
      "type": "function"
    },
    {
      "inputs": [],
      "name": "renounceOwnership",
      "outputs": [],
      "stateMutability": "nonpayable",
      "type": "function"
    },
    {
      "inputs": [
        {
          "internalType": "address",
          "name": "from",
          "type": "address"
        },
        {
          "internalType": "address",
          "name": "to",
          "type": "address"
        },
        {
          "internalType": "uint256",
          "name": "tokenId",
          "type": "uint256"
        }
      ],
      "name": "safeTransferFrom",
      "outputs": [],
      "stateMutability": "nonpayable",
      "type": "function"
    },
    {
      "inputs": [
        {
          "internalType": "address",
          "name": "from",
          "type": "address"
        },
        {
          "internalType": "address",
          "name": "to",
          "type": "address"
        },
        {
          "internalType": "uint256",
          "name": "tokenId",
          "type": "uint256"
        },
        {
          "internalType": "bytes",
          "name": "data",
          "type": "bytes"
        }
      ],
      "name": "safeTransferFrom",
      "outputs": [],
      "stateMutability": "nonpayable",
      "type": "function"
    },
    {
      "inputs": [
        {
          "internalType": "address",
          "name": "operator",
          "type": "address"
        },
        {
          "internalType": "bool",
          "name": "approved",
          "type": "bool"
        }
      ],
      "name": "setApprovalForAll",
      "outputs": [],
      "stateMutability": "nonpayable",
      "type": "function"
    },
    {
      "inputs": [
        {
          "internalType": "bytes4",
          "name": "interfaceId",
          "type": "bytes4"
        }
      ],
      "name": "supportsInterface",
      "outputs": [
        {
          "internalType": "bool",
          "name": "",
          "type": "bool"
        }
      ],
      "stateMutability": "view",
      "type": "function"
    },
    {
      "inputs": [],
      "name": "symbol",
      "outputs": [
        {
          "internalType": "string",
          "name": "",
          "type": "string"
        }
      ],
      "stateMutability": "view",
      "type": "function"
    },
    {
      "inputs": [
        {
          "internalType": "uint256",
          "name": "",
          "type": "uint256"
        }
      ],
      "name": "tokenToRegenmon",
      "outputs": [
        {
          "internalType": "string",
          "name": "",
          "type": "string"
        }
      ],
      "stateMutability": "view",
      "type": "function"
    },
    {
      "inputs": [
        {
          "internalType": "uint256",
          "name": "tokenId",
          "type": "uint256"
        }
      ],
      "name": "tokenURI",
      "outputs": [
        {
          "internalType": "string",
          "name": "",
          "type": "string"
        }
      ],
      "stateMutability": "view",
      "type": "function"
    },
    {
      "inputs": [
        {
          "internalType": "address",
          "name": "from",
          "type": "address"
        },
        {
          "internalType": "address",
          "name": "to",
          "type": "address"
        },
        {
          "internalType": "uint256",
          "name": "tokenId",
          "type": "uint256"
        }
      ],
      "name": "transferFrom",
      "outputs": [],
      "stateMutability": "nonpayable",
      "type": "function"
    },
    {
      "inputs": [
        {
          "internalType": "address",
          "name": "newOwner",
          "type": "address"
        }
      ],
      "name": "transferOwnership",
      "outputs": [],
      "stateMutability": "nonpayable",
      "type": "function"
    }
  ],
  "bytecode": "0x60806040523480156200001157600080fd5b50336040518060400160405280600b81526020017f526567656e6d6f6e4e46540000000000000000000000000000000000000000008152506040518060400160405280600481526020017f524d4f4e00000000000000000000000000000000000000000000000000000000815250816000908162000090919062000472565b508060019081620000a2919062000472565b505050600073ffffffffffffffffffffffffffffffffffffffff168173ffffffffffffffffffffffffffffffffffffffff16036200011a5760006040517f1e4fbdf70000000000000000000000000000000000000000000000000000000081526004016200011191906200059e565b60405180910390fd5b6200012b816200013260201b60201c565b50620005bb565b6000600760009054906101000a900473ffffffffffffffffffffffffffffffffffffffff16905081600760006101000a81548173ffffffffffffffffffffffffffffffffffffffff021916908373ffffffffffffffffffffffffffffffffffffffff1602179055508173ffffffffffffffffffffffffffffffffffffffff168173ffffffffffffffffffffffffffffffffffffffff167f8be0079c531659141344cd1fd0a4f28419497f9722a3daafe3b4186f6b6457e060405160405180910390a35050565b600081519050919050565b7f4e487b7100000000000000000000000000000000000000000000000000000000600052604160045260246000fd5b7f4e487b7100000000000000000000000000000000000000000000000000000000600052602260045260246000fd5b600060028204905060018216806200027a57607f821691505b60208210810362000290576200028f62000232565b5b50919050565b60008190508160005260206000209050919050565b60006020601f8301049050919050565b600082821b905092915050565b600060088302620002fa7fffffffffffffffffffffffffffffffffffffffffffffffffffffffffffffffff82620002bb565b620003068683620002bb565b95508019841693508086168417925050509392505050565b6000819050919050565b6000819050919050565b6000620003536200034d62000347846200031e565b62000328565b6200031e565b9050919050565b6000819050919050565b6200036f8362000332565b620003876200037e826200035a565b848454620002c8565b825550505050565b600090565b6200039e6200038f565b620003ab81848462000364565b505050565b5b81811015620003d357620003c760008262000394565b600181019050620003b1565b5050565b601f8211156200042257620003ec8162000296565b620003f784620002ab565b8101602085101562000407578190505b6200041f6200041685620002ab565b830182620003b0565b50505b505050565b600082821c905092915050565b6000620004476000198460080262000427565b1980831691505092915050565b600062000462838362000434565b9150826002028217905092915050565b6200047d82620001f8565b67ffffffffffffffff81111562000499576200049862000203565b5b620004a5825462000261565b620004b2828285620003d7565b600060209050601f831160018114620004ea5760008415620004d5578287015190505b620004e1858262000454565b86555062000551565b601f198416620004fa8662000296565b60005b828110156200052457848901518255600182019150602085019450602081019050620004fd565b8683101562000544578489015162000540601f89168262000434565b8355505b6001600288020188555050505b505050505050565b600073ffffffffffffffffffffffffffffffffffffffff82169050919050565b6000620005868262000559565b9050919050565b620005988162000579565b82525050565b6000602082019050620005b560008301846200058d565b92915050565b612b3580620005cb6000396000f3fe608060405234801561001057600080fd5b50600436106101215760003560e01c80638da5cb5b116100ad578063cf6280ce11610071578063cf6280ce14610306578063e02b816914610336578063e985e9c514610366578063f2fde38b14610396578063f6126d2f146103b257610121565b80638da5cb5b1461026257806395d89b4114610280578063a22cb4651461029e578063b88d4fde146102ba578063c87b56dd146102d657610121565b806323b872dd116100f457806323b872dd146101c057806342842e0e146101dc5780636352211e146101f857806370a0823114610228578063715018a61461025857610121565b806301ffc9a71461012657806306fdde0314610156578063081812fc14610174578063095ea7b3146101a4575b600080fd5b610140600480360381019061013b9190611d26565b6103e2565b60405161014d9190611d6e565b60405180910390f35b61015e6103f4565b60405161016b9190611e19565b60405180910390f35b61018e60048036038101906101899190611e71565b610486565b60405161019b9190611edf565b60405180910390f35b6101be60048036038101906101b99190611f26565b6104a2565b005b6101da60048036038101906101d59190611f66565b6104b8565b005b6101f660048036038101906101f19190611f66565b6105ba565b005b610212600480360381019061020d9190611e71565b6105da565b60405161021f9190611edf565b60405180910390f35b610242600480360381019061023d9190611fb9565b6105ec565b60405161024f9190611ff5565b60405180910390f35b6102606106a6565b005b61026a6106ba565b6040516102779190611edf565b60405180910390f35b6102886106e4565b6040516102959190611e19565b60405180910390f35b6102b860048036038101906102b3919061203c565b610776565b005b6102d460048036038101906102cf91906121b1565b61078c565b005b6102f060048036038101906102eb9190611e71565b6107b1565b6040516102fd9190611e19565b60405180910390f35b610320600480360381019061031b91906122d5565b6107c3565b60405161032d9190611ff5565b60405180910390f35b610350600480360381019061034b919061237e565b6107f1565b60405161035d9190611ff5565b60405180910390f35b610380600480360381019061037b9190612413565b61091b565b60405161038d9190611d6e565b60405180910390f35b6103b060048036038101906103ab9190611fb9565b6109af565b005b6103cc60048036038101906103c79190611e71565b610a35565b6040516103d99190611e19565b60405180910390f35b60006103ed82610ad5565b9050919050565b60606000805461040390612482565b80601f016020809104026020016040519081016040528092919081815260200182805461042f90612482565b801561047c5780601f106104515761010080835404028352916020019161047c565b820191906000526020600020905b81548152906001019060200180831161045f57829003601f168201915b5050505050905090565b600061049182610b36565b5061049b82610bbe565b9050919050565b6104b482826104af610bfb565b610c03565b5050565b600073ffffffffffffffffffffffffffffffffffffffff168273ffffffffffffffffffffffffffffffffffffffff160361052a5760006040517f64a0ae920000000000000000000000000000000000000000000000000000000081526004016105219190611edf565b60405180910390fd5b600061053e8383610539610bfb565b610c15565b90508373ffffffffffffffffffffffffffffffffffffffff168173ffffffffffffffffffffffffffffffffffffffff16146105b4578382826040517f64283d7b0000000000000000000000000000000000000000000000000000000081526004016105ab939291906124b3565b60405180910390fd5b50505050565b6105d58383836040518060200160405280600081525061078c565b505050565b60006105e582610b36565b9050919050565b60008073ffffffffffffffffffffffffffffffffffffffff168273ffffffffffffffffffffffffffffffffffffffff160361065f5760006040517f89c62b640000000000000000000000000000000000000000000000000000000081526004016106569190611edf565b60405180910390fd5b600360008373ffffffffffffffffffffffffffffffffffffffff1673ffffffffffffffffffffffffffffffffffffffff168152602001908152602001600020549050919050565b6106ae610e2f565b6106b86000610eb6565b565b6000600760009054906101000a900473ffffffffffffffffffffffffffffffffffffffff16905090565b6060600180546106f390612482565b80601f016020809104026020016040519081016040528092919081815260200182805461071f90612482565b801561076c5780601f106107415761010080835404028352916020019161076c565b820191906000526020600020905b81548152906001019060200180831161074f57829003601f168201915b5050505050905090565b610788610781610bfb565b8383610f7c565b5050565b6107978484846104b8565b6107ab6107a2610bfb565b858585856110eb565b50505050565b60606107bc8261129c565b9050919050565b6009818051602081018201805184825260208301602085012081835280955050505050506000915090505481565b6000806009868660405161080692919061251a565b90815260200160405180910390205414610855576040517f08c379a000000000000000000000000000000000000000000000000000000000815260040161084c9061257f565b60405180910390fd5b6000600860008154610866906125ce565b919050819055905061087887826113af565b6108c68185858080601f016020809104026020016040519081016040528093929190818152602001838380828437600081840152601f19601f820116905080830192505050505050506113cd565b80600987876040516108d992919061251a565b9081526020016040518091039020819055508585600a6000848152602001908152602001600020918261090d9291906127cd565b508091505095945050505050565b6000600560008473ffffffffffffffffffffffffffffffffffffffff1673ffffffffffffffffffffffffffffffffffffffff16815260200190815260200160002060008373ffffffffffffffffffffffffffffffffffffffff1673ffffffffffffffffffffffffffffffffffffffff16815260200190815260200160002060009054906101000a900460ff16905092915050565b6109b7610e2f565b600073ffffffffffffffffffffffffffffffffffffffff168173ffffffffffffffffffffffffffffffffffffffff1603610a295760006040517f1e4fbdf7000000000000000000000000000000000000000000000000000000008152600401610a209190611edf565b60405180910390fd5b610a3281610eb6565b50565b600a6020528060005260406000206000915090508054610a5490612482565b80601f0160208091040260200160405190810160405280929190818152602001828054610a8090612482565b8015610acd5780601f10610aa257610100808354040283529160200191610acd565b820191906000526020600020905b815481529060010190602001808311610ab057829003601f168201915b505050505081565b6000634906490660e01b7bffffffffffffffffffffffffffffffffffffffffffffffffffffffff1916827bffffffffffffffffffffffffffffffffffffffffffffffffffffffff19161480610b2f5750610b2e82611429565b5b9050919050565b600080610b428361150b565b9050600073ffffffffffffffffffffffffffffffffffffffff168173ffffffffffffffffffffffffffffffffffffffff1603610bb557826040517f7e273289000000000000000000000000000000000000000000000000000000008152600401610bac9190611ff5565b60405180910390fd5b80915050919050565b60006004600083815260200190815260200160002060009054906101000a900473ffffffffffffffffffffffffffffffffffffffff169050919050565b600033905090565b610c108383836001611548565b505050565b600080610c218461150b565b9050600073ffffffffffffffffffffffffffffffffffffffff168373ffffffffffffffffffffffffffffffffffffffff1614610c6357610c6281848661170d565b5b600073ffffffffffffffffffffffffffffffffffffffff168173ffffffffffffffffffffffffffffffffffffffff1614610cf457610ca5600085600080611548565b6001600360008373ffffffffffffffffffffffffffffffffffffffff1673ffffffffffffffffffffffffffffffffffffffff168152602001908152602001600020600082825403925050819055505b600073ffffffffffffffffffffffffffffffffffffffff168573ffffffffffffffffffffffffffffffffffffffff1614610d77576001600360008773ffffffffffffffffffffffffffffffffffffffff1673ffffffffffffffffffffffffffffffffffffffff168152602001908152602001600020600082825401925050819055505b846002600086815260200190815260200160002060006101000a81548173ffffffffffffffffffffffffffffffffffffffff021916908373ffffffffffffffffffffffffffffffffffffffff160217905550838573ffffffffffffffffffffffffffffffffffffffff168273ffffffffffffffffffffffffffffffffffffffff167fddf252ad1be2c89b69c2b068fc378daa952ba7f163c4a11628f55a4df523b3ef60405160405180910390a4809150509392505050565b610e37610bfb565b73ffffffffffffffffffffffffffffffffffffffff16610e556106ba565b73ffffffffffffffffffffffffffffffffffffffff1614610eb457610e78610bfb565b6040517f118cdaa7000000000000000000000000000000000000000000000000000000008152600401610eab9190611edf565b60405180910390fd5b565b6000600760009054906101000a900473ffffffffffffffffffffffffffffffffffffffff16905081600760006101000a81548173ffffffffffffffffffffffffffffffffffffffff021916908373ffffffffffffffffffffffffffffffffffffffff1602179055508173ffffffffffffffffffffffffffffffffffffffff168173ffffffffffffffffffffffffffffffffffffffff167f8be0079c531659141344cd1fd0a4f28419497f9722a3daafe3b4186f6b6457e060405160405180910390a35050565b600073ffffffffffffffffffffffffffffffffffffffff168273ffffffffffffffffffffffffffffffffffffffff1603610fed57816040517f5b08ba18000000000000000000000000000000000000000000000000000000008152600401610fe49190611edf565b60405180910390fd5b80600560008573ffffffffffffffffffffffffffffffffffffffff1673ffffffffffffffffffffffffffffffffffffffff16815260200190815260200160002060008473ffffffffffffffffffffffffffffffffffffffff1673ffffffffffffffffffffffffffffffffffffffff16815260200190815260200160002060006101000a81548160ff0219169083151502179055508173ffffffffffffffffffffffffffffffffffffffff168373ffffffffffffffffffffffffffffffffffffffff167f17307eab39ab6107e8899845ad3d59bd9653f200f220920489ca2b5937696c31836040516110de9190611d6e565b60405180910390a3505050565b60008373ffffffffffffffffffffffffffffffffffffffff163b1115611295578273ffffffffffffffffffffffffffffffffffffffff1663150b7a02868685856040518563ffffffff1660e01b815260040161114a94939291906128f2565b6020604051808303816000875af192505050801561118657506040513d601f19601f820116820180604052508101906111839190612953565b60015b61120a573d80600081146111b6576040519150601f19603f3d011682016040523d82523d6000602084013e6111bb565b606091505b50600081510361120257836040517f64a0ae920000000000000000000000000000000000000000000000000000000081526004016111f99190611edf565b60405180910390fd5b805160208201fd5b63150b7a0260e01b7bffffffffffffffffffffffffffffffffffffffffffffffffffffffff1916817bffffffffffffffffffffffffffffffffffffffffffffffffffffffff19161461129357836040517f64a0ae9200000000000000000000000000000000000000000000000000000000815260040161128a9190611edf565b60405180910390fd5b505b5050505050565b60606112a782610b36565b5060006006600084815260200190815260200160002080546112c890612482565b80601f01602080910402602001604051908101604052809291908181526020018280546112f490612482565b80156113415780601f1061131657610100808354040283529160200191611341565b820191906000526020600020905b81548152906001019060200180831161132457829003601f168201915b5050505050905060006113526117d1565b905060008151036113675781925050506113aa565b60008251111561139c5780826040516020016113849291906129b1565b604051602081830303815290604052925050506113aa565b6113a5846117e8565b925050505b919050565b6113c9828260405180602001604052806000815250611851565b5050565b806006600084815260200190815260200160002090816113ed91906129d5565b507ff8e1a15aba9398e019f0b49df1a4fde98ee17ae345cb5f6b5e2c27f5033e8ce78260405161141d9190611ff5565b60405180910390a15050565b60007f80ac58cd000000000000000000000000000000000000000000000000000000007bffffffffffffffffffffffffffffffffffffffffffffffffffffffff1916827bffffffffffffffffffffffffffffffffffffffffffffffffffffffff191614806114f457507f5b5e139f000000000000000000000000000000000000000000000000000000007bffffffffffffffffffffffffffffffffffffffffffffffffffffffff1916827bffffffffffffffffffffffffffffffffffffffffffffffffffffffff1916145b80611504575061150382611875565b5b9050919050565b60006002600083815260200190815260200160002060009054906101000a900473ffffffffffffffffffffffffffffffffffffffff169050919050565b80806115815750600073ffffffffffffffffffffffffffffffffffffffff168273ffffffffffffffffffffffffffffffffffffffff1614155b156116b557600061159184610b36565b9050600073ffffffffffffffffffffffffffffffffffffffff168373ffffffffffffffffffffffffffffffffffffffff16141580156115fc57508273ffffffffffffffffffffffffffffffffffffffff168173ffffffffffffffffffffffffffffffffffffffff1614155b801561160f575061160d818461091b565b155b1561165157826040517fa9fbf51f0000000000000000000000000000000000000000000000000000000081526004016116489190611edf565b60405180910390fd5b81156116b357838573ffffffffffffffffffffffffffffffffffffffff168273ffffffffffffffffffffffffffffffffffffffff167f8c5be1e5ebec7d5bd14f71427d1e84f3dd0314c0f7b2291e5b200ac8c7c3b92560405160405180910390a45b505b836004600085815260200190815260200160002060006101000a81548173ffffffffffffffffffffffffffffffffffffffff021916908373ffffffffffffffffffffffffffffffffffffffff16021790555050505050565b6117188383836118df565b6117cc57600073ffffffffffffffffffffffffffffffffffffffff168373ffffffffffffffffffffffffffffffffffffffff160361178d57806040517f7e2732890000000000000000000000000000000000000000000000000000000081526004016117849190611ff5565b60405180910390fd5b81816040517f177e802f0000000000000000000000000000000000000000000000000000000081526004016117c3929190612aa7565b60405180910390fd5b505050565b606060405180602001604052806000815250905090565b60606117f382610b36565b5060006117fe6117d1565b9050600081511161181e5760405180602001604052806000815250611849565b80611828846119a0565b6040516020016118399291906129b1565b6040516020818303038152906040525b915050919050565b61185b8383611a6e565b611870611866610bfb565b60008585856110eb565b505050565b60007f01ffc9a7000000000000000000000000000000000000000000000000000000007bffffffffffffffffffffffffffffffffffffffffffffffffffffffff1916827bffffffffffffffffffffffffffffffffffffffffffffffffffffffff1916149050919050565b60008073ffffffffffffffffffffffffffffffffffffffff168373ffffffffffffffffffffffffffffffffffffffff161415801561199757508273ffffffffffffffffffffffffffffffffffffffff168473ffffffffffffffffffffffffffffffffffffffff1614806119585750611957848461091b565b5b8061199657508273ffffffffffffffffffffffffffffffffffffffff1661197e83610bbe565b73ffffffffffffffffffffffffffffffffffffffff16145b5b90509392505050565b6060600060016119af84611b67565b01905060008167ffffffffffffffff8111156119ce576119cd612086565b5b6040519080825280601f01601f191660200182016040528015611a005781602001600182028036833780820191505090505b509050600082602083010190505b600115611a63578080600190039150507f3031323334353637383961626364656600000000000000000000000000000000600a86061a8153600a8581611a5757611a56612ad0565b5b04945060008503611a0e575b819350505050919050565b600073ffffffffffffffffffffffffffffffffffffffff168273ffffffffffffffffffffffffffffffffffffffff1603611ae05760006040517f64a0ae92000000000000000000000000000000000000000000000000000000008152600401611ad79190611edf565b60405180910390fd5b6000611aee83836000610c15565b9050600073ffffffffffffffffffffffffffffffffffffffff168173ffffffffffffffffffffffffffffffffffffffff1614611b625760006040517f73c6ac6e000000000000000000000000000000000000000000000000000000008152600401611b599190611edf565b60405180910390fd5b505050565b600080600090507a184f03e93ff9f4daa797ed6e38ed64bf6a1f0100000000000000008310611bc5577a184f03e93ff9f4daa797ed6e38ed64bf6a1f0100000000000000008381611bbb57611bba612ad0565b5b0492506040810190505b6d04ee2d6d415b85acef81000000008310611c02576d04ee2d6d415b85acef81000000008381611bf857611bf7612ad0565b5b0492506020810190505b662386f26fc100008310611c3157662386f26fc100008381611c2757611c26612ad0565b5b0492506010810190505b6305f5e1008310611c5a576305f5e1008381611c5057611c4f612ad0565b5b0492506008810190505b6127108310611c7f576127108381611c7557611c74612ad0565b5b0492506004810190505b60648310611ca25760648381611c9857611c97612ad0565b5b0492506002810190505b600a8310611cb1576001810190505b80915050919050565b6000604051905090565b600080fd5b600080fd5b60007fffffffff0000000000000000000000000000000000000000000000000000000082169050919050565b611d0381611cce565b8114611d0e57600080fd5b50565b600081359050611d2081611cfa565b92915050565b600060208284031215611d3c57611d3b611cc4565b5b6000611d4a84828501611d11565b91505092915050565b60008115159050919050565b611d6881611d53565b82525050565b6000602082019050611d836000830184611d5f565b92915050565b600081519050919050565b600082825260208201905092915050565b60005b83811015611dc3578082015181840152602081019050611da8565b60008484015250505050565b6000601f19601f8301169050919050565b6000611deb82611d89565b611df58185611d94565b9350611e05818560208601611da5565b611e0e81611dcf565b840191505092915050565b60006020820190508181036000830152611e338184611de0565b905092915050565b6000819050919050565b611e4e81611e3b565b8114611e5957600080fd5b50565b600081359050611e6b81611e45565b92915050565b600060208284031215611e8757611e86611cc4565b5b6000611e9584828501611e5c565b91505092915050565b600073ffffffffffffffffffffffffffffffffffffffff82169050919050565b6000611ec982611e9e565b9050919050565b611ed981611ebe565b82525050565b6000602082019050611ef46000830184611ed0565b92915050565b611f0381611ebe565b8114611f0e57600080fd5b50565b600081359050611f2081611efa565b92915050565b60008060408385031215611f3d57611f3c611cc4565b5b6000611f4b85828601611f11565b9250506020611f5c85828601611e5c565b9150509250929050565b600080600060608486031215611f7f57611f7e611cc4565b5b6000611f8d86828701611f11565b9350506020611f9e86828701611f11565b9250506040611faf86828701611e5c565b9150509250925092565b600060208284031215611fcf57611fce611cc4565b5b6000611fdd84828501611f11565b91505092915050565b611fef81611e3b565b82525050565b600060208201905061200a6000830184611fe6565b92915050565b61201981611d53565b811461202457600080fd5b50565b60008135905061203681612010565b92915050565b6000806040838503121561205357612052611cc4565b5b600061206185828601611f11565b925050602061207285828601612027565b9150509250929050565b600080fd5b600080fd5b7f4e487b7100000000000000000000000000000000000000000000000000000000600052604160045260246000fd5b6120be82611dcf565b810181811067ffffffffffffffff821117156120dd576120dc612086565b5b80604052505050565b60006120f0611cba565b90506120fc82826120b5565b919050565b600067ffffffffffffffff82111561211c5761211b612086565b5b61212582611dcf565b9050602081019050919050565b82818337600083830152505050565b600061215461214f84612101565b6120e6565b9050828152602081018484840111156121705761216f612081565b5b61217b848285612132565b509392505050565b600082601f8301126121985761219761207c565b5b81356121a8848260208601612141565b91505092915050565b600080600080608085870312156121cb576121ca611cc4565b5b60006121d987828801611f11565b94505060206121ea87828801611f11565b93505060406121fb87828801611e5c565b925050606085013567ffffffffffffffff81111561221c5761221b611cc9565b5b61222887828801612183565b91505092959194509250565b600067ffffffffffffffff82111561224f5761224e612086565b5b61225882611dcf565b9050602081019050919050565b600061227861227384612234565b6120e6565b90508281526020810184848401111561229457612293612081565b5b61229f848285612132565b509392505050565b600082601f8301126122bc576122bb61207c565b5b81356122cc848260208601612265565b91505092915050565b6000602082840312156122eb576122ea611cc4565b5b600082013567ffffffffffffffff81111561230957612308611cc9565b5b612315848285016122a7565b91505092915050565b600080fd5b600080fd5b60008083601f84011261233e5761233d61207c565b5b8235905067ffffffffffffffff81111561235b5761235a61231e565b5b60208301915083600182028301111561237757612376612323565b5b9250929050565b60008060008060006060868803121561239a57612399611cc4565b5b60006123a888828901611f11565b955050602086013567ffffffffffffffff8111156123c9576123c8611cc9565b5b6123d588828901612328565b9450945050604086013567ffffffffffffffff8111156123f8576123f7611cc9565b5b61240488828901612328565b92509250509295509295909350565b6000806040838503121561242a57612429611cc4565b5b600061243885828601611f11565b925050602061244985828601611f11565b9150509250929050565b7f4e487b7100000000000000000000000000000000000000000000000000000000600052602260045260246000fd5b6000600282049050600182168061249a57607f821691505b6020821081036124ad576124ac612453565b5b50919050565b60006060820190506124c86000830186611ed0565b6124d56020830185611fe6565b6124e26040830184611ed0565b949350505050565b600081905092915050565b600061250183856124ea565b935061250e838584612132565b82840190509392505050565b60006125278284866124f5565b91508190509392505050565b7f416c7265616479206d696e746564000000000000000000000000000000000000600082015250565b6000612569600e83611d94565b915061257482612533565b602082019050919050565b600060208201905081810360008301526125988161255c565b9050919050565b7f4e487b7100000000000000000000000000000000000000000000000000000000600052601160045260246000fd5b60006125d982611e3b565b91507fffffffffffffffffffffffffffffffffffffffffffffffffffffffffffffffff820361260b5761260a61259f565b5b600182019050919050565b600082905092915050565b60008190508160005260206000209050919050565b60006020601f8301049050919050565b600082821b905092915050565b6000600883026126837fffffffffffffffffffffffffffffffffffffffffffffffffffffffffffffffff82612646565b61268d8683612646565b95508019841693508086168417925050509392505050565b6000819050919050565b60006126ca6126c56126c084611e3b565b6126a5565b611e3b565b9050919050565b6000819050919050565b6126e4836126af565b6126f86126f0826126d1565b848454612653565b825550505050565b600090565b61270d612700565b6127188184846126db565b505050565b5b8181101561273c57612731600082612705565b60018101905061271e565b5050565b601f8211156127815761275281612621565b61275b84612636565b8101602085101561276a578190505b61277e61277685612636565b83018261271d565b50505b505050565b600082821c905092915050565b60006127a460001984600802612786565b1980831691505092915050565b60006127bd8383612793565b9150826002028217905092915050565b6127d78383612616565b67ffffffffffffffff8111156127f0576127ef612086565b5b6127fa8254612482565b612805828285612740565b6000601f8311600181146128345760008415612822578287013590505b61282c85826127b1565b865550612894565b601f19841661284286612621565b60005b8281101561286a57848901358255600182019150602085019450602081019050612845565b868310156128875784890135612883601f891682612793565b8355505b6001600288020188555050505b50505050505050565b600081519050919050565b600082825260208201905092915050565b60006128c48261289d565b6128ce81856128a8565b93506128de818560208601611da5565b6128e781611dcf565b840191505092915050565b60006080820190506129076000830187611ed0565b6129146020830186611ed0565b6129216040830185611fe6565b818103606083015261293381846128b9565b905095945050505050565b60008151905061294d81611cfa565b92915050565b60006020828403121561296957612968611cc4565b5b60006129778482850161293e565b91505092915050565b600061298b82611d89565b61299581856124ea565b93506129a5818560208601611da5565b80840191505092915050565b60006129bd8285612980565b91506129c98284612980565b91508190509392505050565b6129de82611d89565b67ffffffffffffffff8111156129f7576129f6612086565b5b612a018254612482565b612a0c828285612740565b600060209050601f831160018114612a3f5760008415612a2d578287015190505b612a3785826127b1565b865550612a9f565b601f198416612a4d86612621565b60005b82811015612a7557848901518255600182019150602085019450602081019050612a50565b86831015612a925784890151612a8e601f891682612793565b8355505b6001600288020188555050505b505050505050565b6000604082019050612abc6000830185611ed0565b612ac96020830184611fe6565b9392505050565b7f4e487b7100000000000000000000000000000000000000000000000000000000600052601260045260246000fdfea264697066735822122015330380f0ca63f60a55b2fa9de14c4482cc1c7d5667339f5cf7b81b250ed3ce64736f6c63430008140033",
  "linkReferences": {},
  "deployedLinkReferences": {}
}